{
  "_format": "hh-sol-artifact-1",
  "contractName": "RandomIpfsNft",
  "sourceName": "contracts/RandomIpfsNft.sol",
  "abi": [
    {
      "inputs": [
        {
          "internalType": "address",
          "name": "vrfCoordinatorV2",
          "type": "address"
        },
        {
          "internalType": "uint64",
          "name": "subscriptionId",
          "type": "uint64"
        },
        {
          "internalType": "bytes32",
          "name": "gasLane",
          "type": "bytes32"
        },
        {
          "internalType": "uint32",
          "name": "callbackGasLimit",
          "type": "uint32"
        },
        {
          "internalType": "string[3]",
          "name": "dogTokenUris",
          "type": "string[3]"
        },
        {
          "internalType": "uint256",
          "name": "mintFee",
          "type": "uint256"
        }
      ],
      "stateMutability": "nonpayable",
      "type": "constructor"
    },
    {
      "inputs": [
        {
          "internalType": "address",
          "name": "have",
          "type": "address"
        },
        {
          "internalType": "address",
          "name": "want",
          "type": "address"
        }
      ],
      "name": "OnlyCoordinatorCanFulfill",
      "type": "error"
    },
    {
      "inputs": [],
      "name": "RandomIpfsNft__NeedMoreNFT",
      "type": "error"
    },
    {
      "inputs": [],
      "name": "RandomIpfsNft__RangeOutOfBounds",
      "type": "error"
    },
    {
      "inputs": [],
      "name": "RandomIpfsNft__TransferFailed",
      "type": "error"
    },
    {
      "anonymous": false,
      "inputs": [
        {
          "indexed": true,
          "internalType": "address",
          "name": "owner",
          "type": "address"
        },
        {
          "indexed": true,
          "internalType": "address",
          "name": "approved",
          "type": "address"
        },
        {
          "indexed": true,
          "internalType": "uint256",
          "name": "tokenId",
          "type": "uint256"
        }
      ],
      "name": "Approval",
      "type": "event"
    },
    {
      "anonymous": false,
      "inputs": [
        {
          "indexed": true,
          "internalType": "address",
          "name": "owner",
          "type": "address"
        },
        {
          "indexed": true,
          "internalType": "address",
          "name": "operator",
          "type": "address"
        },
        {
          "indexed": false,
          "internalType": "bool",
          "name": "approved",
          "type": "bool"
        }
      ],
      "name": "ApprovalForAll",
      "type": "event"
    },
    {
      "anonymous": false,
      "inputs": [
        {
          "indexed": true,
          "internalType": "uint256",
          "name": "requestId",
          "type": "uint256"
        },
        {
          "indexed": false,
          "internalType": "address",
          "name": "requester",
          "type": "address"
        }
      ],
      "name": "NFTRequested",
      "type": "event"
    },
    {
      "anonymous": false,
      "inputs": [
        {
          "indexed": false,
          "internalType": "enum RandomIpfsNft.Breed",
          "name": "dogBreed",
          "type": "uint8"
        },
        {
          "indexed": false,
          "internalType": "address",
          "name": "minter",
          "type": "address"
        }
      ],
      "name": "NftMinted",
      "type": "event"
    },
    {
      "anonymous": false,
      "inputs": [
        {
          "indexed": true,
          "internalType": "address",
          "name": "previousOwner",
          "type": "address"
        },
        {
          "indexed": true,
          "internalType": "address",
          "name": "newOwner",
          "type": "address"
        }
      ],
      "name": "OwnershipTransferred",
      "type": "event"
    },
    {
      "anonymous": false,
      "inputs": [
        {
          "indexed": true,
          "internalType": "address",
          "name": "from",
          "type": "address"
        },
        {
          "indexed": true,
          "internalType": "address",
          "name": "to",
          "type": "address"
        },
        {
          "indexed": true,
          "internalType": "uint256",
          "name": "tokenId",
          "type": "uint256"
        }
      ],
      "name": "Transfer",
      "type": "event"
    },
    {
      "inputs": [
        {
          "internalType": "address",
          "name": "to",
          "type": "address"
        },
        {
          "internalType": "uint256",
          "name": "tokenId",
          "type": "uint256"
        }
      ],
      "name": "approve",
      "outputs": [],
      "stateMutability": "nonpayable",
      "type": "function"
    },
    {
      "inputs": [
        {
          "internalType": "address",
          "name": "owner",
          "type": "address"
        }
      ],
      "name": "balanceOf",
      "outputs": [
        {
          "internalType": "uint256",
          "name": "",
          "type": "uint256"
        }
      ],
      "stateMutability": "view",
      "type": "function"
    },
    {
      "inputs": [
        {
          "internalType": "uint256",
          "name": "tokenId",
          "type": "uint256"
        }
      ],
      "name": "getApproved",
      "outputs": [
        {
          "internalType": "address",
          "name": "",
          "type": "address"
        }
      ],
      "stateMutability": "view",
      "type": "function"
    },
    {
      "inputs": [
        {
          "internalType": "uint256",
          "name": "moddedRng",
          "type": "uint256"
        }
      ],
      "name": "getBreadFromModdedRng",
      "outputs": [
        {
          "internalType": "enum RandomIpfsNft.Breed",
          "name": "",
          "type": "uint8"
        }
      ],
      "stateMutability": "pure",
      "type": "function"
    },
    {
      "inputs": [],
      "name": "getChanceArray",
      "outputs": [
        {
          "internalType": "uint256[3]",
          "name": "",
          "type": "uint256[3]"
        }
      ],
      "stateMutability": "pure",
      "type": "function"
    },
    {
      "inputs": [
        {
          "internalType": "uint256",
          "name": "index",
          "type": "uint256"
        }
      ],
      "name": "getDogTokenUris",
      "outputs": [
        {
          "internalType": "string",
          "name": "",
          "type": "string"
        }
      ],
      "stateMutability": "view",
      "type": "function"
    },
    {
      "inputs": [],
      "name": "getTokenCounter",
      "outputs": [
        {
          "internalType": "uint256",
          "name": "",
          "type": "uint256"
        }
      ],
      "stateMutability": "view",
      "type": "function"
    },
    {
      "inputs": [
        {
          "internalType": "address",
          "name": "owner",
          "type": "address"
        },
        {
          "internalType": "address",
          "name": "operator",
          "type": "address"
        }
      ],
      "name": "isApprovedForAll",
      "outputs": [
        {
          "internalType": "bool",
          "name": "",
          "type": "bool"
        }
      ],
      "stateMutability": "view",
      "type": "function"
    },
    {
      "inputs": [],
      "name": "mintFee",
      "outputs": [
        {
          "internalType": "uint256",
          "name": "",
          "type": "uint256"
        }
      ],
      "stateMutability": "view",
      "type": "function"
    },
    {
      "inputs": [],
      "name": "name",
      "outputs": [
        {
          "internalType": "string",
          "name": "",
          "type": "string"
        }
      ],
      "stateMutability": "view",
      "type": "function"
    },
    {
      "inputs": [],
      "name": "owner",
      "outputs": [
        {
          "internalType": "address",
          "name": "",
          "type": "address"
        }
      ],
      "stateMutability": "view",
      "type": "function"
    },
    {
      "inputs": [
        {
          "internalType": "uint256",
          "name": "tokenId",
          "type": "uint256"
        }
      ],
      "name": "ownerOf",
      "outputs": [
        {
          "internalType": "address",
          "name": "",
          "type": "address"
        }
      ],
      "stateMutability": "view",
      "type": "function"
    },
    {
      "inputs": [
        {
          "internalType": "uint256",
          "name": "requestId",
          "type": "uint256"
        },
        {
          "internalType": "uint256[]",
          "name": "randomWords",
          "type": "uint256[]"
        }
      ],
      "name": "rawFulfillRandomWords",
      "outputs": [],
      "stateMutability": "nonpayable",
      "type": "function"
    },
    {
      "inputs": [],
      "name": "renounceOwnership",
      "outputs": [],
      "stateMutability": "nonpayable",
      "type": "function"
    },
    {
      "inputs": [],
      "name": "requestNFT",
      "outputs": [
        {
          "internalType": "uint256",
          "name": "requestId",
          "type": "uint256"
        }
      ],
      "stateMutability": "payable",
      "type": "function"
    },
    {
      "inputs": [
        {
          "internalType": "uint256",
          "name": "",
          "type": "uint256"
        }
      ],
      "name": "s_requestIdToSender",
      "outputs": [
        {
          "internalType": "address",
          "name": "",
          "type": "address"
        }
      ],
      "stateMutability": "view",
      "type": "function"
    },
    {
      "inputs": [],
      "name": "s_tokenCounter",
      "outputs": [
        {
          "internalType": "uint256",
          "name": "",
          "type": "uint256"
        }
      ],
      "stateMutability": "view",
      "type": "function"
    },
    {
      "inputs": [
        {
          "internalType": "address",
          "name": "from",
          "type": "address"
        },
        {
          "internalType": "address",
          "name": "to",
          "type": "address"
        },
        {
          "internalType": "uint256",
          "name": "tokenId",
          "type": "uint256"
        }
      ],
      "name": "safeTransferFrom",
      "outputs": [],
      "stateMutability": "nonpayable",
      "type": "function"
    },
    {
      "inputs": [
        {
          "internalType": "address",
          "name": "from",
          "type": "address"
        },
        {
          "internalType": "address",
          "name": "to",
          "type": "address"
        },
        {
          "internalType": "uint256",
          "name": "tokenId",
          "type": "uint256"
        },
        {
          "internalType": "bytes",
          "name": "data",
          "type": "bytes"
        }
      ],
      "name": "safeTransferFrom",
      "outputs": [],
      "stateMutability": "nonpayable",
      "type": "function"
    },
    {
      "inputs": [
        {
          "internalType": "address",
          "name": "operator",
          "type": "address"
        },
        {
          "internalType": "bool",
          "name": "approved",
          "type": "bool"
        }
      ],
      "name": "setApprovalForAll",
      "outputs": [],
      "stateMutability": "nonpayable",
      "type": "function"
    },
    {
      "inputs": [
        {
          "internalType": "bytes4",
          "name": "interfaceId",
          "type": "bytes4"
        }
      ],
      "name": "supportsInterface",
      "outputs": [
        {
          "internalType": "bool",
          "name": "",
          "type": "bool"
        }
      ],
      "stateMutability": "view",
      "type": "function"
    },
    {
      "inputs": [],
      "name": "symbol",
      "outputs": [
        {
          "internalType": "string",
          "name": "",
          "type": "string"
        }
      ],
      "stateMutability": "view",
      "type": "function"
    },
    {
      "inputs": [
        {
          "internalType": "uint256",
          "name": "tokenId",
          "type": "uint256"
        }
      ],
      "name": "tokenURI",
      "outputs": [
        {
          "internalType": "string",
          "name": "",
          "type": "string"
        }
      ],
      "stateMutability": "view",
      "type": "function"
    },
    {
      "inputs": [
        {
          "internalType": "address",
          "name": "from",
          "type": "address"
        },
        {
          "internalType": "address",
          "name": "to",
          "type": "address"
        },
        {
          "internalType": "uint256",
          "name": "tokenId",
          "type": "uint256"
        }
      ],
      "name": "transferFrom",
      "outputs": [],
      "stateMutability": "nonpayable",
      "type": "function"
    },
    {
      "inputs": [
        {
          "internalType": "address",
          "name": "newOwner",
          "type": "address"
        }
      ],
      "name": "transferOwnership",
      "outputs": [],
      "stateMutability": "nonpayable",
      "type": "function"
    },
    {
      "inputs": [],
      "name": "withdraw",
      "outputs": [],
      "stateMutability": "nonpayable",
      "type": "function"
    }
  ],
  "bytecode": "0x6101206040523480156200001257600080fd5b5060405162004299380380620042998339818101604052810190620000389190620007fd565b6040518060400160405280600f81526020017f52616e646f6d2049504653204e465400000000000000000000000000000000008152506040518060400160405280600381526020017f52494e0000000000000000000000000000000000000000000000000000000000815250878073ffffffffffffffffffffffffffffffffffffffff1660808173ffffffffffffffffffffffffffffffffffffffff1681525050508160009080519060200190620000f292919062000290565b5080600190805190602001906200010b92919062000290565b5050506200012e62000122620001c260201b60201c565b620001ca60201b60201c565b8573ffffffffffffffffffffffffffffffffffffffff1660a08173ffffffffffffffffffffffffffffffffffffffff16815250508467ffffffffffffffff1660c08167ffffffffffffffff16815250508360e081815250508263ffffffff166101008163ffffffff168152505081600a906003620001ae92919062000321565b5080600b819055505050505050506200091d565b600033905090565b6000600760009054906101000a900473ffffffffffffffffffffffffffffffffffffffff16905081600760006101000a81548173ffffffffffffffffffffffffffffffffffffffff021916908373ffffffffffffffffffffffffffffffffffffffff1602179055508173ffffffffffffffffffffffffffffffffffffffff168173ffffffffffffffffffffffffffffffffffffffff167f8be0079c531659141344cd1fd0a4f28419497f9722a3daafe3b4186f6b6457e060405160405180910390a35050565b8280546200029e90620008e7565b90600052602060002090601f016020900481019282620002c257600085556200030e565b82601f10620002dd57805160ff19168380011785556200030e565b828001600101855582156200030e579182015b828111156200030d578251825591602001919060010190620002f0565b5b5090506200031d919062000388565b5090565b82805482825590600052602060002090810192821562000375579160200282015b82811115620003745782518290805190602001906200036392919062000290565b509160200191906001019062000342565b5b509050620003849190620003a7565b5090565b5b80821115620003a357600081600090555060010162000389565b5090565b5b80821115620003cb5760008181620003c19190620003cf565b50600101620003a8565b5090565b508054620003dd90620008e7565b6000825580601f10620003f1575062000412565b601f01602090049060005260206000209081019062000411919062000388565b5b50565b6000604051905090565b600080fd5b600080fd5b600073ffffffffffffffffffffffffffffffffffffffff82169050919050565b6000620004568262000429565b9050919050565b620004688162000449565b81146200047457600080fd5b50565b60008151905062000488816200045d565b92915050565b600067ffffffffffffffff82169050919050565b620004ad816200048e565b8114620004b957600080fd5b50565b600081519050620004cd81620004a2565b92915050565b6000819050919050565b620004e881620004d3565b8114620004f457600080fd5b50565b6000815190506200050881620004dd565b92915050565b600063ffffffff82169050919050565b62000529816200050e565b81146200053557600080fd5b50565b60008151905062000549816200051e565b92915050565b600080fd5b6000601f19601f8301169050919050565b7f4e487b7100000000000000000000000000000000000000000000000000000000600052604160045260246000fd5b6200059f8262000554565b810181811067ffffffffffffffff82111715620005c157620005c062000565565b5b80604052505050565b6000620005d662000415565b9050620005e4828262000594565b919050565b600067ffffffffffffffff82111562000607576200060662000565565b5b602082029050919050565b600080fd5b600080fd5b600067ffffffffffffffff8211156200063a576200063962000565565b5b620006458262000554565b9050602081019050919050565b60005b838110156200067257808201518184015260208101905062000655565b8381111562000682576000848401525b50505050565b60006200069f62000699846200061c565b620005ca565b905082815260208101848484011115620006be57620006bd62000617565b5b620006cb84828562000652565b509392505050565b600082601f830112620006eb57620006ea6200054f565b5b8151620006fd84826020860162000688565b91505092915050565b60006200071d6200071784620005e9565b620005ca565b905080602084028301858111156200073a576200073962000612565b5b835b818110156200078857805167ffffffffffffffff8111156200076357620007626200054f565b5b808601620007728982620006d3565b855260208501945050506020810190506200073c565b5050509392505050565b600082601f830112620007aa57620007a96200054f565b5b6003620007b984828562000706565b91505092915050565b6000819050919050565b620007d781620007c2565b8114620007e357600080fd5b50565b600081519050620007f781620007cc565b92915050565b60008060008060008060c087890312156200081d576200081c6200041f565b5b60006200082d89828a0162000477565b96505060206200084089828a01620004bc565b95505060406200085389828a01620004f7565b94505060606200086689828a0162000538565b935050608087015167ffffffffffffffff8111156200088a576200088962000424565b5b6200089889828a0162000792565b92505060a0620008ab89828a01620007e6565b9150509295509295509295565b7f4e487b7100000000000000000000000000000000000000000000000000000000600052602260045260246000fd5b600060028204905060018216806200090057607f821691505b60208210811415620009175762000916620008b8565b5b50919050565b60805160a05160c05160e05161010051613930620009696000396000610e3c01526000610df801526000610e1901526000610dbc015260008181610927015261097b01526139306000f3fe6080604052600436106101815760003560e01c80636e02007d116100d157806395d89b411161008a578063b88d4fde11610064578063b88d4fde14610577578063c87b56dd146105a0578063e985e9c5146105dd578063f2fde38b1461061a57610181565b806395d89b41146104e6578063a22cb46514610511578063a36f573b1461053a57610181565b80636e02007d146103e157806370a082311461040c578063715018a6146104495780637abd25d1146104605780638cba3eed1461047e5780638da5cb5b146104bb57610181565b80631fe543e31161013e5780633ccfd60b116101185780633ccfd60b1461033957806342842e0e146103505780635dacf5f4146103795780636352211e146103a457610181565b80631fe543e3146102aa57806323b872dd146102d35780633af25975146102fc57610181565b806301ffc9a71461018657806306fdde03146101c3578063081812fc146101ee578063095ea7b31461022b5780630b21a83b1461025457806313966db51461027f575b600080fd5b34801561019257600080fd5b506101ad60048036038101906101a891906124de565b610643565b6040516101ba9190612526565b60405180910390f35b3480156101cf57600080fd5b506101d8610725565b6040516101e591906125da565b60405180910390f35b3480156101fa57600080fd5b5061021560048036038101906102109190612632565b6107b7565b60405161022291906126a0565b60405180910390f35b34801561023757600080fd5b50610252600480360381019061024d91906126e7565b6107fd565b005b34801561026057600080fd5b50610269610915565b6040516102769190612736565b60405180910390f35b34801561028b57600080fd5b5061029461091b565b6040516102a19190612736565b60405180910390f35b3480156102b657600080fd5b506102d160048036038101906102cc9190612899565b610925565b005b3480156102df57600080fd5b506102fa60048036038101906102f591906128f5565b6109e5565b005b34801561030857600080fd5b50610323600480360381019061031e9190612632565b610a45565b60405161033091906125da565b60405180910390f35b34801561034557600080fd5b5061034e610af5565b005b34801561035c57600080fd5b50610377600480360381019061037291906128f5565b610ba9565b005b34801561038557600080fd5b5061038e610bc9565b60405161039b91906129f3565b60405180910390f35b3480156103b057600080fd5b506103cb60048036038101906103c69190612632565b610bf4565b6040516103d891906126a0565b60405180910390f35b3480156103ed57600080fd5b506103f6610ca6565b6040516104039190612736565b60405180910390f35b34801561041857600080fd5b50610433600480360381019061042e9190612a0e565b610cb0565b6040516104409190612736565b60405180910390f35b34801561045557600080fd5b5061045e610d68565b005b610468610d7c565b6040516104759190612736565b60405180910390f35b34801561048a57600080fd5b506104a560048036038101906104a09190612632565b610f5e565b6040516104b29190612ab2565b60405180910390f35b3480156104c757600080fd5b506104d0611040565b6040516104dd91906126a0565b60405180910390f35b3480156104f257600080fd5b506104fb61106a565b60405161050891906125da565b60405180910390f35b34801561051d57600080fd5b5061053860048036038101906105339190612af9565b6110fc565b005b34801561054657600080fd5b50610561600480360381019061055c9190612632565b611112565b60405161056e91906126a0565b60405180910390f35b34801561058357600080fd5b5061059e60048036038101906105999190612bee565b611145565b005b3480156105ac57600080fd5b506105c760048036038101906105c29190612632565b6111a7565b6040516105d491906125da565b60405180910390f35b3480156105e957600080fd5b5061060460048036038101906105ff9190612c71565b6112ba565b6040516106119190612526565b60405180910390f35b34801561062657600080fd5b50610641600480360381019061063c9190612a0e565b61134e565b005b60007f80ac58cd000000000000000000000000000000000000000000000000000000007bffffffffffffffffffffffffffffffffffffffffffffffffffffffff1916827bffffffffffffffffffffffffffffffffffffffffffffffffffffffff1916148061070e57507f5b5e139f000000000000000000000000000000000000000000000000000000007bffffffffffffffffffffffffffffffffffffffffffffffffffffffff1916827bffffffffffffffffffffffffffffffffffffffffffffffffffffffff1916145b8061071e575061071d826113d2565b5b9050919050565b60606000805461073490612ce0565b80601f016020809104026020016040519081016040528092919081815260200182805461076090612ce0565b80156107ad5780601f10610782576101008083540402835291602001916107ad565b820191906000526020600020905b81548152906001019060200180831161079057829003601f168201915b5050505050905090565b60006107c28261143c565b6004600083815260200190815260200160002060009054906101000a900473ffffffffffffffffffffffffffffffffffffffff169050919050565b600061080882610bf4565b90508073ffffffffffffffffffffffffffffffffffffffff168373ffffffffffffffffffffffffffffffffffffffff161415610879576040517f08c379a000000000000000000000000000000000000000000000000000000000815260040161087090612d84565b60405180910390fd5b8073ffffffffffffffffffffffffffffffffffffffff16610898611487565b73ffffffffffffffffffffffffffffffffffffffff1614806108c757506108c6816108c1611487565b6112ba565b5b610906576040517f08c379a00000000000000000000000000000000000000000000000000000000081526004016108fd90612e16565b60405180910390fd5b610910838361148f565b505050565b60095481565b6000600b54905090565b7f000000000000000000000000000000000000000000000000000000000000000073ffffffffffffffffffffffffffffffffffffffff163373ffffffffffffffffffffffffffffffffffffffff16146109d757337f00000000000000000000000000000000000000000000000000000000000000006040517f1cf993f40000000000000000000000000000000000000000000000000000000081526004016109ce929190612e36565b60405180910390fd5b6109e18282611548565b5050565b6109f66109f0611487565b826116cd565b610a35576040517f08c379a0000000000000000000000000000000000000000000000000000000008152600401610a2c90612ed1565b60405180910390fd5b610a40838383611762565b505050565b6060600a8281548110610a5b57610a5a612ef1565b5b906000526020600020018054610a7090612ce0565b80601f0160208091040260200160405190810160405280929190818152602001828054610a9c90612ce0565b8015610ae95780601f10610abe57610100808354040283529160200191610ae9565b820191906000526020600020905b815481529060010190602001808311610acc57829003601f168201915b50505050509050919050565b610afd6119c9565b600047905060003373ffffffffffffffffffffffffffffffffffffffff1682604051610b2890612f51565b60006040518083038185875af1925050503d8060008114610b65576040519150601f19603f3d011682016040523d82523d6000602084013e610b6a565b606091505b5050905080610ba5576040517fca7e25b700000000000000000000000000000000000000000000000000000000815260040160405180910390fd5b5050565b610bc483838360405180602001604052806000815250611145565b505050565b610bd16123ad565b6040518060600160405280600a8152602001601481526020016064815250905090565b6000806002600084815260200190815260200160002060009054906101000a900473ffffffffffffffffffffffffffffffffffffffff169050600073ffffffffffffffffffffffffffffffffffffffff168173ffffffffffffffffffffffffffffffffffffffff161415610c9d576040517f08c379a0000000000000000000000000000000000000000000000000000000008152600401610c9490612fb2565b60405180910390fd5b80915050919050565b6000600954905090565b60008073ffffffffffffffffffffffffffffffffffffffff168273ffffffffffffffffffffffffffffffffffffffff161415610d21576040517f08c379a0000000000000000000000000000000000000000000000000000000008152600401610d1890613044565b60405180910390fd5b600360008373ffffffffffffffffffffffffffffffffffffffff1673ffffffffffffffffffffffffffffffffffffffff168152602001908152602001600020549050919050565b610d706119c9565b610d7a6000611a47565b565b6000600b54341015610dba576040517fbe7f881a00000000000000000000000000000000000000000000000000000000815260040160405180910390fd5b7f000000000000000000000000000000000000000000000000000000000000000073ffffffffffffffffffffffffffffffffffffffff16635d3b1d307f00000000000000000000000000000000000000000000000000000000000000007f000000000000000000000000000000000000000000000000000000000000000060037f000000000000000000000000000000000000000000000000000000000000000060016040518663ffffffff1660e01b8152600401610e7d9594939291906130dc565b602060405180830381600087803b158015610e9757600080fd5b505af1158015610eab573d6000803e3d6000fd5b505050506040513d601f19601f82011682018060405250810190610ecf9190613144565b9050336008600083815260200190815260200160002060006101000a81548173ffffffffffffffffffffffffffffffffffffffff021916908373ffffffffffffffffffffffffffffffffffffffff160217905550807f4e1c2f1eae56e29ec039a2b882eec626e6c420ed5a5b93a203c8b8b695e911b133604051610f5391906126a0565b60405180910390a290565b600080600090506000610f6f610bc9565b905060005b600381101561100857828510158015610fae5750818160038110610f9b57610f9a612ef1565b5b602002015183610fab91906131a0565b85105b15610fd057806002811115610fc657610fc5612a3b565b5b935050505061103b565b818160038110610fe357610fe2612ef1565b5b602002015183610ff391906131a0565b92508080611000906131f6565b915050610f74565b506040517f12806c9d00000000000000000000000000000000000000000000000000000000815260040160405180910390fd5b919050565b6000600760009054906101000a900473ffffffffffffffffffffffffffffffffffffffff16905090565b60606001805461107990612ce0565b80601f01602080910402602001604051908101604052809291908181526020018280546110a590612ce0565b80156110f25780601f106110c7576101008083540402835291602001916110f2565b820191906000526020600020905b8154815290600101906020018083116110d557829003601f168201915b5050505050905090565b61110e611107611487565b8383611b0d565b5050565b60086020528060005260406000206000915054906101000a900473ffffffffffffffffffffffffffffffffffffffff1681565b611156611150611487565b836116cd565b611195576040517f08c379a000000000000000000000000000000000000000000000000000000000815260040161118c90612ed1565b60405180910390fd5b6111a184848484611c7a565b50505050565b60606111b28261143c565b60006006600084815260200190815260200160002080546111d290612ce0565b80601f01602080910402602001604051908101604052809291908181526020018280546111fe90612ce0565b801561124b5780601f106112205761010080835404028352916020019161124b565b820191906000526020600020905b81548152906001019060200180831161122e57829003601f168201915b50505050509050600061125c611cd6565b90506000815114156112725781925050506112b5565b6000825111156112a757808260405160200161128f92919061327b565b604051602081830303815290604052925050506112b5565b6112b084611ced565b925050505b919050565b6000600560008473ffffffffffffffffffffffffffffffffffffffff1673ffffffffffffffffffffffffffffffffffffffff16815260200190815260200160002060008373ffffffffffffffffffffffffffffffffffffffff1673ffffffffffffffffffffffffffffffffffffffff16815260200190815260200160002060009054906101000a900460ff16905092915050565b6113566119c9565b600073ffffffffffffffffffffffffffffffffffffffff168173ffffffffffffffffffffffffffffffffffffffff1614156113c6576040517f08c379a00000000000000000000000000000000000000000000000000000000081526004016113bd90613311565b60405180910390fd5b6113cf81611a47565b50565b60007f01ffc9a7000000000000000000000000000000000000000000000000000000007bffffffffffffffffffffffffffffffffffffffffffffffffffffffff1916827bffffffffffffffffffffffffffffffffffffffffffffffffffffffff1916149050919050565b61144581611d55565b611484576040517f08c379a000000000000000000000000000000000000000000000000000000000815260040161147b90612fb2565b60405180910390fd5b50565b600033905090565b816004600083815260200190815260200160002060006101000a81548173ffffffffffffffffffffffffffffffffffffffff021916908373ffffffffffffffffffffffffffffffffffffffff160217905550808273ffffffffffffffffffffffffffffffffffffffff1661150283610bf4565b73ffffffffffffffffffffffffffffffffffffffff167f8c5be1e5ebec7d5bd14f71427d1e84f3dd0314c0f7b2291e5b200ac8c7c3b92560405160405180910390a45050565b60006008600084815260200190815260200160002060009054906101000a900473ffffffffffffffffffffffffffffffffffffffff16905060006009549050600060648460008151811061159f5761159e612ef1565b5b60200260200101516115b19190613360565b905060006115be82610f5e565b90506115ca8484611dc1565b61168c83600a8360028111156115e3576115e2612a3b565b5b815481106115f4576115f3612ef1565b5b90600052602060002001805461160990612ce0565b80601f016020809104026020016040519081016040528092919081815260200182805461163590612ce0565b80156116825780601f1061165757610100808354040283529160200191611682565b820191906000526020600020905b81548152906001019060200180831161166557829003601f168201915b5050505050611ddf565b7f8a269f26b688e110e9cbd887d163dab35cae678fa353a0292de532c0cac1ecdc81856040516116bd929190613391565b60405180910390a1505050505050565b6000806116d983610bf4565b90508073ffffffffffffffffffffffffffffffffffffffff168473ffffffffffffffffffffffffffffffffffffffff16148061171b575061171a81856112ba565b5b8061175957508373ffffffffffffffffffffffffffffffffffffffff16611741846107b7565b73ffffffffffffffffffffffffffffffffffffffff16145b91505092915050565b8273ffffffffffffffffffffffffffffffffffffffff1661178282610bf4565b73ffffffffffffffffffffffffffffffffffffffff16146117d8576040517f08c379a00000000000000000000000000000000000000000000000000000000081526004016117cf9061342c565b60405180910390fd5b600073ffffffffffffffffffffffffffffffffffffffff168273ffffffffffffffffffffffffffffffffffffffff161415611848576040517f08c379a000000000000000000000000000000000000000000000000000000000815260040161183f906134be565b60405180910390fd5b611853838383611e53565b61185e60008261148f565b6001600360008573ffffffffffffffffffffffffffffffffffffffff1673ffffffffffffffffffffffffffffffffffffffff16815260200190815260200160002060008282546118ae91906134de565b925050819055506001600360008473ffffffffffffffffffffffffffffffffffffffff1673ffffffffffffffffffffffffffffffffffffffff168152602001908152602001600020600082825461190591906131a0565b92505081905550816002600083815260200190815260200160002060006101000a81548173ffffffffffffffffffffffffffffffffffffffff021916908373ffffffffffffffffffffffffffffffffffffffff160217905550808273ffffffffffffffffffffffffffffffffffffffff168473ffffffffffffffffffffffffffffffffffffffff167fddf252ad1be2c89b69c2b068fc378daa952ba7f163c4a11628f55a4df523b3ef60405160405180910390a46119c4838383611e58565b505050565b6119d1611487565b73ffffffffffffffffffffffffffffffffffffffff166119ef611040565b73ffffffffffffffffffffffffffffffffffffffff1614611a45576040517f08c379a0000000000000000000000000000000000000000000000000000000008152600401611a3c9061355e565b60405180910390fd5b565b6000600760009054906101000a900473ffffffffffffffffffffffffffffffffffffffff16905081600760006101000a81548173ffffffffffffffffffffffffffffffffffffffff021916908373ffffffffffffffffffffffffffffffffffffffff1602179055508173ffffffffffffffffffffffffffffffffffffffff168173ffffffffffffffffffffffffffffffffffffffff167f8be0079c531659141344cd1fd0a4f28419497f9722a3daafe3b4186f6b6457e060405160405180910390a35050565b8173ffffffffffffffffffffffffffffffffffffffff168373ffffffffffffffffffffffffffffffffffffffff161415611b7c576040517f08c379a0000000000000000000000000000000000000000000000000000000008152600401611b73906135ca565b60405180910390fd5b80600560008573ffffffffffffffffffffffffffffffffffffffff1673ffffffffffffffffffffffffffffffffffffffff16815260200190815260200160002060008473ffffffffffffffffffffffffffffffffffffffff1673ffffffffffffffffffffffffffffffffffffffff16815260200190815260200160002060006101000a81548160ff0219169083151502179055508173ffffffffffffffffffffffffffffffffffffffff168373ffffffffffffffffffffffffffffffffffffffff167f17307eab39ab6107e8899845ad3d59bd9653f200f220920489ca2b5937696c3183604051611c6d9190612526565b60405180910390a3505050565b611c85848484611762565b611c9184848484611e5d565b611cd0576040517f08c379a0000000000000000000000000000000000000000000000000000000008152600401611cc79061365c565b60405180910390fd5b50505050565b606060405180602001604052806000815250905090565b6060611cf88261143c565b6000611d02611cd6565b90506000815111611d225760405180602001604052806000815250611d4d565b80611d2c84611ff4565b604051602001611d3d92919061327b565b6040516020818303038152906040525b915050919050565b60008073ffffffffffffffffffffffffffffffffffffffff166002600084815260200190815260200160002060009054906101000a900473ffffffffffffffffffffffffffffffffffffffff1673ffffffffffffffffffffffffffffffffffffffff1614159050919050565b611ddb828260405180602001604052806000815250612155565b5050565b611de882611d55565b611e27576040517f08c379a0000000000000000000000000000000000000000000000000000000008152600401611e1e906136ee565b60405180910390fd5b80600660008481526020019081526020016000209080519060200190611e4e9291906123cf565b505050565b505050565b505050565b6000611e7e8473ffffffffffffffffffffffffffffffffffffffff166121b0565b15611fe7578373ffffffffffffffffffffffffffffffffffffffff1663150b7a02611ea7611487565b8786866040518563ffffffff1660e01b8152600401611ec99493929190613763565b602060405180830381600087803b158015611ee357600080fd5b505af1925050508015611f1457506040513d601f19601f82011682018060405250810190611f1191906137c4565b60015b611f97573d8060008114611f44576040519150601f19603f3d011682016040523d82523d6000602084013e611f49565b606091505b50600081511415611f8f576040517f08c379a0000000000000000000000000000000000000000000000000000000008152600401611f869061365c565b60405180910390fd5b805181602001fd5b63150b7a0260e01b7bffffffffffffffffffffffffffffffffffffffffffffffffffffffff1916817bffffffffffffffffffffffffffffffffffffffffffffffffffffffff191614915050611fec565b600190505b949350505050565b6060600082141561203c576040518060400160405280600181526020017f30000000000000000000000000000000000000000000000000000000000000008152509050612150565b600082905060005b6000821461206e578080612057906131f6565b915050600a8261206791906137f1565b9150612044565b60008167ffffffffffffffff81111561208a57612089612756565b5b6040519080825280601f01601f1916602001820160405280156120bc5781602001600182028036833780820191505090505b5090505b60008514612149576001826120d591906134de565b9150600a856120e49190613360565b60306120f091906131a0565b60f81b81838151811061210657612105612ef1565b5b60200101907effffffffffffffffffffffffffffffffffffffffffffffffffffffffffffff1916908160001a905350600a8561214291906137f1565b94506120c0565b8093505050505b919050565b61215f83836121d3565b61216c6000848484611e5d565b6121ab576040517f08c379a00000000000000000000000000000000000000000000000000000000081526004016121a29061365c565b60405180910390fd5b505050565b6000808273ffffffffffffffffffffffffffffffffffffffff163b119050919050565b600073ffffffffffffffffffffffffffffffffffffffff168273ffffffffffffffffffffffffffffffffffffffff161415612243576040517f08c379a000000000000000000000000000000000000000000000000000000000815260040161223a9061386e565b60405180910390fd5b61224c81611d55565b1561228c576040517f08c379a0000000000000000000000000000000000000000000000000000000008152600401612283906138da565b60405180910390fd5b61229860008383611e53565b6001600360008473ffffffffffffffffffffffffffffffffffffffff1673ffffffffffffffffffffffffffffffffffffffff16815260200190815260200160002060008282546122e891906131a0565b92505081905550816002600083815260200190815260200160002060006101000a81548173ffffffffffffffffffffffffffffffffffffffff021916908373ffffffffffffffffffffffffffffffffffffffff160217905550808273ffffffffffffffffffffffffffffffffffffffff16600073ffffffffffffffffffffffffffffffffffffffff167fddf252ad1be2c89b69c2b068fc378daa952ba7f163c4a11628f55a4df523b3ef60405160405180910390a46123a960008383611e58565b5050565b6040518060600160405280600390602082028036833780820191505090505090565b8280546123db90612ce0565b90600052602060002090601f0160209004810192826123fd5760008555612444565b82601f1061241657805160ff1916838001178555612444565b82800160010185558215612444579182015b82811115612443578251825591602001919060010190612428565b5b5090506124519190612455565b5090565b5b8082111561246e576000816000905550600101612456565b5090565b6000604051905090565b600080fd5b600080fd5b60007fffffffff0000000000000000000000000000000000000000000000000000000082169050919050565b6124bb81612486565b81146124c657600080fd5b50565b6000813590506124d8816124b2565b92915050565b6000602082840312156124f4576124f361247c565b5b6000612502848285016124c9565b91505092915050565b60008115159050919050565b6125208161250b565b82525050565b600060208201905061253b6000830184612517565b92915050565b600081519050919050565b600082825260208201905092915050565b60005b8381101561257b578082015181840152602081019050612560565b8381111561258a576000848401525b50505050565b6000601f19601f8301169050919050565b60006125ac82612541565b6125b6818561254c565b93506125c681856020860161255d565b6125cf81612590565b840191505092915050565b600060208201905081810360008301526125f481846125a1565b905092915050565b6000819050919050565b61260f816125fc565b811461261a57600080fd5b50565b60008135905061262c81612606565b92915050565b6000602082840312156126485761264761247c565b5b60006126568482850161261d565b91505092915050565b600073ffffffffffffffffffffffffffffffffffffffff82169050919050565b600061268a8261265f565b9050919050565b61269a8161267f565b82525050565b60006020820190506126b56000830184612691565b92915050565b6126c48161267f565b81146126cf57600080fd5b50565b6000813590506126e1816126bb565b92915050565b600080604083850312156126fe576126fd61247c565b5b600061270c858286016126d2565b925050602061271d8582860161261d565b9150509250929050565b612730816125fc565b82525050565b600060208201905061274b6000830184612727565b92915050565b600080fd5b7f4e487b7100000000000000000000000000000000000000000000000000000000600052604160045260246000fd5b61278e82612590565b810181811067ffffffffffffffff821117156127ad576127ac612756565b5b80604052505050565b60006127c0612472565b90506127cc8282612785565b919050565b600067ffffffffffffffff8211156127ec576127eb612756565b5b602082029050602081019050919050565b600080fd5b6000612815612810846127d1565b6127b6565b90508083825260208201905060208402830185811115612838576128376127fd565b5b835b81811015612861578061284d888261261d565b84526020840193505060208101905061283a565b5050509392505050565b600082601f8301126128805761287f612751565b5b8135612890848260208601612802565b91505092915050565b600080604083850312156128b0576128af61247c565b5b60006128be8582860161261d565b925050602083013567ffffffffffffffff8111156128df576128de612481565b5b6128eb8582860161286b565b9150509250929050565b60008060006060848603121561290e5761290d61247c565b5b600061291c868287016126d2565b935050602061292d868287016126d2565b925050604061293e8682870161261d565b9150509250925092565b600060039050919050565b600081905092915050565b6000819050919050565b612971816125fc565b82525050565b60006129838383612968565b60208301905092915050565b6000602082019050919050565b6129a581612948565b6129af8184612953565b92506129ba8261295e565b8060005b838110156129eb5781516129d28782612977565b96506129dd8361298f565b9250506001810190506129be565b505050505050565b6000606082019050612a08600083018461299c565b92915050565b600060208284031215612a2457612a2361247c565b5b6000612a32848285016126d2565b91505092915050565b7f4e487b7100000000000000000000000000000000000000000000000000000000600052602160045260246000fd5b60038110612a7b57612a7a612a3b565b5b50565b6000819050612a8c82612a6a565b919050565b6000612a9c82612a7e565b9050919050565b612aac81612a91565b82525050565b6000602082019050612ac76000830184612aa3565b92915050565b612ad68161250b565b8114612ae157600080fd5b50565b600081359050612af381612acd565b92915050565b60008060408385031215612b1057612b0f61247c565b5b6000612b1e858286016126d2565b9250506020612b2f85828601612ae4565b9150509250929050565b600080fd5b600067ffffffffffffffff821115612b5957612b58612756565b5b612b6282612590565b9050602081019050919050565b82818337600083830152505050565b6000612b91612b8c84612b3e565b6127b6565b905082815260208101848484011115612bad57612bac612b39565b5b612bb8848285612b6f565b509392505050565b600082601f830112612bd557612bd4612751565b5b8135612be5848260208601612b7e565b91505092915050565b60008060008060808587031215612c0857612c0761247c565b5b6000612c16878288016126d2565b9450506020612c27878288016126d2565b9350506040612c388782880161261d565b925050606085013567ffffffffffffffff811115612c5957612c58612481565b5b612c6587828801612bc0565b91505092959194509250565b60008060408385031215612c8857612c8761247c565b5b6000612c96858286016126d2565b9250506020612ca7858286016126d2565b9150509250929050565b7f4e487b7100000000000000000000000000000000000000000000000000000000600052602260045260246000fd5b60006002820490506001821680612cf857607f821691505b60208210811415612d0c57612d0b612cb1565b5b50919050565b7f4552433732313a20617070726f76616c20746f2063757272656e74206f776e6560008201527f7200000000000000000000000000000000000000000000000000000000000000602082015250565b6000612d6e60218361254c565b9150612d7982612d12565b604082019050919050565b60006020820190508181036000830152612d9d81612d61565b9050919050565b7f4552433732313a20617070726f76652063616c6c6572206973206e6f7420746f60008201527f6b656e206f776e6572206e6f7220617070726f76656420666f7220616c6c0000602082015250565b6000612e00603e8361254c565b9150612e0b82612da4565b604082019050919050565b60006020820190508181036000830152612e2f81612df3565b9050919050565b6000604082019050612e4b6000830185612691565b612e586020830184612691565b9392505050565b7f4552433732313a2063616c6c6572206973206e6f7420746f6b656e206f776e6560008201527f72206e6f7220617070726f766564000000000000000000000000000000000000602082015250565b6000612ebb602e8361254c565b9150612ec682612e5f565b604082019050919050565b60006020820190508181036000830152612eea81612eae565b9050919050565b7f4e487b7100000000000000000000000000000000000000000000000000000000600052603260045260246000fd5b600081905092915050565b50565b6000612f3b600083612f20565b9150612f4682612f2b565b600082019050919050565b6000612f5c82612f2e565b9150819050919050565b7f4552433732313a20696e76616c696420746f6b656e2049440000000000000000600082015250565b6000612f9c60188361254c565b9150612fa782612f66565b602082019050919050565b60006020820190508181036000830152612fcb81612f8f565b9050919050565b7f4552433732313a2061646472657373207a65726f206973206e6f74206120766160008201527f6c6964206f776e65720000000000000000000000000000000000000000000000602082015250565b600061302e60298361254c565b915061303982612fd2565b604082019050919050565b6000602082019050818103600083015261305d81613021565b9050919050565b6000819050919050565b61307781613064565b82525050565b600067ffffffffffffffff82169050919050565b61309a8161307d565b82525050565b600061ffff82169050919050565b6130b7816130a0565b82525050565b600063ffffffff82169050919050565b6130d6816130bd565b82525050565b600060a0820190506130f1600083018861306e565b6130fe6020830187613091565b61310b60408301866130ae565b61311860608301856130cd565b61312560808301846130cd565b9695505050505050565b60008151905061313e81612606565b92915050565b60006020828403121561315a5761315961247c565b5b60006131688482850161312f565b91505092915050565b7f4e487b7100000000000000000000000000000000000000000000000000000000600052601160045260246000fd5b60006131ab826125fc565b91506131b6836125fc565b9250827fffffffffffffffffffffffffffffffffffffffffffffffffffffffffffffffff038211156131eb576131ea613171565b5b828201905092915050565b6000613201826125fc565b91507fffffffffffffffffffffffffffffffffffffffffffffffffffffffffffffffff82141561323457613233613171565b5b600182019050919050565b600081905092915050565b600061325582612541565b61325f818561323f565b935061326f81856020860161255d565b80840191505092915050565b6000613287828561324a565b9150613293828461324a565b91508190509392505050565b7f4f776e61626c653a206e6577206f776e657220697320746865207a65726f206160008201527f6464726573730000000000000000000000000000000000000000000000000000602082015250565b60006132fb60268361254c565b91506133068261329f565b604082019050919050565b6000602082019050818103600083015261332a816132ee565b9050919050565b7f4e487b7100000000000000000000000000000000000000000000000000000000600052601260045260246000fd5b600061336b826125fc565b9150613376836125fc565b92508261338657613385613331565b5b828206905092915050565b60006040820190506133a66000830185612aa3565b6133b36020830184612691565b9392505050565b7f4552433732313a207472616e736665722066726f6d20696e636f72726563742060008201527f6f776e6572000000000000000000000000000000000000000000000000000000602082015250565b600061341660258361254c565b9150613421826133ba565b604082019050919050565b6000602082019050818103600083015261344581613409565b9050919050565b7f4552433732313a207472616e7366657220746f20746865207a65726f2061646460008201527f7265737300000000000000000000000000000000000000000000000000000000602082015250565b60006134a860248361254c565b91506134b38261344c565b604082019050919050565b600060208201905081810360008301526134d78161349b565b9050919050565b60006134e9826125fc565b91506134f4836125fc565b92508282101561350757613506613171565b5b828203905092915050565b7f4f776e61626c653a2063616c6c6572206973206e6f7420746865206f776e6572600082015250565b600061354860208361254c565b915061355382613512565b602082019050919050565b600060208201905081810360008301526135778161353b565b9050919050565b7f4552433732313a20617070726f766520746f2063616c6c657200000000000000600082015250565b60006135b460198361254c565b91506135bf8261357e565b602082019050919050565b600060208201905081810360008301526135e3816135a7565b9050919050565b7f4552433732313a207472616e7366657220746f206e6f6e20455243373231526560008201527f63656976657220696d706c656d656e7465720000000000000000000000000000602082015250565b600061364660328361254c565b9150613651826135ea565b604082019050919050565b6000602082019050818103600083015261367581613639565b9050919050565b7f45524337323155524953746f726167653a2055524920736574206f66206e6f6e60008201527f6578697374656e7420746f6b656e000000000000000000000000000000000000602082015250565b60006136d8602e8361254c565b91506136e38261367c565b604082019050919050565b60006020820190508181036000830152613707816136cb565b9050919050565b600081519050919050565b600082825260208201905092915050565b60006137358261370e565b61373f8185613719565b935061374f81856020860161255d565b61375881612590565b840191505092915050565b60006080820190506137786000830187612691565b6137856020830186612691565b6137926040830185612727565b81810360608301526137a4818461372a565b905095945050505050565b6000815190506137be816124b2565b92915050565b6000602082840312156137da576137d961247c565b5b60006137e8848285016137af565b91505092915050565b60006137fc826125fc565b9150613807836125fc565b92508261381757613816613331565b5b828204905092915050565b7f4552433732313a206d696e7420746f20746865207a65726f2061646472657373600082015250565b600061385860208361254c565b915061386382613822565b602082019050919050565b600060208201905081810360008301526138878161384b565b9050919050565b7f4552433732313a20746f6b656e20616c7265616479206d696e74656400000000600082015250565b60006138c4601c8361254c565b91506138cf8261388e565b602082019050919050565b600060208201905081810360008301526138f3816138b7565b905091905056fea2646970667358221220b2929c92fee166042b33656831edfc70512b1270cd4a4497a63e68ba475aceb464736f6c63430008090033",
  "linkReferences": {},
  "deployedLinkReferences": {}
}